:100000003DC0000056C0000054C0000052C00000B7
:1000100050C000004EC000004CC000004AC00000AC
:1000200048C0000046C0000044C0000042C00000BC
:1000300040C000003EC000003CC000003AC00000CC
:1000400038C0000036C0000046C0000032C00000CA
:1000500030C000002EC000002CC000002AC00000EC
:1000600028C0000026C0000024C0000022C00000FC
:1000700020C000001EC000001CC0000011241FBED4
:10008000CFEFD0E1DEBFCDBF11E0A0E0B1E0ECEA00
:10009000F1E002C005900D92A034B107D9F721E03C
:1000A000A0E4B1E001C01D92A634B207E1F777D019
:1000B0007BC0A6CF089584B5836084BD84B5806875
:1000C00084BD85B5826085BDEEE6F0E0808181600B
:1000D000808317BC08951F920F920FB60F921124C0
:1000E0002F933F938F939F93EF93FF9380914001C2
:1000F000909141019C012F5F3F4F3093410120932C
:1001000040018F3F910509F00CF43EC0E09144019D
:10011000F0914501EE0FFF1FE050FF4F808187BD3A
:100120008091420190914301892B51F480914401C7
:10013000909145010196909345018093440109C037
:1001400080914401909145010197909345018093DE
:10015000440180914401909145014F9739F481E029
:1001600090E090934301809342010AC08091440142
:1001700090914501892B21F4109243011092420184
:100180001092410110924001FF91EF919F918F9148
:100190003F912F910F900FBE0F901F901895239AAB
:0C01A000789489DF87DFFFCFF894FFCF51
:1001AC000000010002000200020003000300040032
:1001BC0005000600070008000A000B000D001000E7
:1001CC00130017001B00200026002D0036004000F5
:1001DC004C005B006C0080009800B500D700FF005D
:00000001FF
