:100000003DC000004EC000004CC000004AC00000CF
:1000100048C0000046C0000044C0000042C00000CC
:1000200040C000003EC000003CC000003AC00000DC
:1000300038C0000036C0000034C0000032C00000EC
:1000400030C000002EC000002CC000002AC00000FC
:1000500028C0000026C0000024C0000022C000000C
:1000600020C000001EC000001CC000001AC000001C
:1000700018C0000016C0000014C0000011241FBEEC
:10008000CFEFD0E1DEBFCDBF11E0A0E0B1E0EEE602
:10009000F3E002C005900D92AA31B107D9F732D032
:1000A00064C1AECF1092C5008093C400E1ECF0E0D3
:1000B000808188618083E2ECF0E0808188628083C7
:1000C0008081866080830895E0ECF0E0908195FF68
:1000D000FDCF8093C6000895CF93DF93EC01888114
:1000E000882329F02196F0DF89918111FCCFDF91DF
:1000F000CF910895E0ECF0E080818823ECF78091C7
:10010000C600089588E690E0CDDF00E010E0E12C25
:10011000F12CC0E0D0E00F2EFAE1AF2EB12CF02D83
:10012000CC24C394D12CE6DF209729F490E0B5D0FD
:10013000CC2DDD2DF8CF883519F40F5F1F4FF3CF8D
:10014000883721F48FEFE81AF80AEDCF8F3589F45C
:1001500084E091E0C1DF80E38E0DB6DF8AE0B4DF9A
:100160008FE091E0B9DF80E3800FAEDF8AE0ACDFA3
:10017000DACF8736C1F68ED09927B5011DD08F5BB7
:10018000A3DF88D09927B50117D08F599DDF82D082
:100190009927B50111D08F5B97DF7CD09927B501E6
:1001A0000BD08F5991DF76D09927B50105D08F5BA1
:1001B0008BDF8AE089DFB7CF97FB072E16F4009418
:1001C00006D077FD08D00BD007FC05D03EF4909503
:1001D00081959F4F0895709561957F4F0895AA1B53
:1001E000BB1B51E107C0AA1FBB1FA617B70710F022
:1001F000A61BB70B881F991F5A95A9F78095909554
:10020000BC01CD0108958F929F92AF92BF92CF9281
:10021000DF92EF92FF92CF93DF93EC0168817981B7
:100220008A819B81611571058105910521F464E244
:1002300079ED8BE597E02DE133EF41E050E038D0E8
:1002400049015A019B01AC01A7EAB1E44DD06B0111
:100250007C01ACEEB4EFA501940152D0DC01CB01DE
:100260008C0D9D1DAE1DBF1DB7FF03C00197A109D9
:10027000B04888839983AA83BB839F77DF91CF910E
:10028000FF90EF90DF90CF90BF90AF909F908F90B6
:100290000895B9CF80E091E0B6CFA0E0B0E08093C0
:1002A000000190930101A0930201B093030108950E
:1002B000052E97FB16F400940FD057FD05D024D0DF
:1002C00007FC02D046F408C0509540953095219522
:1002D0003F4F4F4F5F4F0895909580957095619572
:1002E0007F4F8F4F9F4F089531D0A59F900DB49FA2
:1002F000900DA49F800D911D11240895B7FFF4CF98
:10030000F3DF821B930B0895A1E21A2EAA1BBB1BDD
:10031000FD010DC0AA1FBB1FEE1FFF1FA217B307D1
:10032000E407F50720F0A21BB30BE40BF50B661FE7
:10033000771F881F991F1A9469F7609570958095AB
:1003400090959B01AC01BD01CF010895A29FB00122
:10035000B39FC001A39F700D811D1124911DB29FF9
:0E036000700D811D1124911D0895F894FFCF9A
:10036E00010000007820636F756E74203A200058EB
:0A037E0020636F756E743A200000D2
:00000001FF
