S01F000054696D65725F50574D5F50484153455F434F52524543542E7372656370
S11300003DC0000058C0000073C000008EC0000056
S113001050C000004EC000004CC000004AC00000A8
S113002048C0000046C0000044C0000042C00000B8
S113003040C000003EC000003CC000008BC0000077
S113004038C0000036C0000034C0000032C00000D8
S113005030C000002EC000002CC000002AC00000E8
S113006028C0000026C0000024C0000022C00000F8
S113007020C000001EC000001CC0000011241FBED0
S1130080CFEFD0E1DEBFCDBF11E0A0E0B1E0E8EA00
S1130090F2E002C005900D92A238B107D9F721E031
S11300A0A2E8B1E001C01D92A838B207E1F7F0D090
S11300B0F9C0A6CF08951F920F920FB60F92112484
S11300C08F939F93EF93FF93E1E8F0E08081816049
S11300D080838AE790E09093010180930001FF916F
S11300E0EF919F918F910F900FBE0F901F901895D5
S11300F01F920F920FB60F9211248F939F93EF9339
S1130100FF93E1E8F0E080818160808380E990E002
S11301109093010180930001FF91EF919F918F9142
S11301200F900FBE0F901F9018951F920F920FB64D
S11301300F9211248F93EF93FF93E1E8F0E0808115
S11301408E7F8083FF91EF918F910F900FBE0F9060
S11301501F9018951F920F920FB60F9211242F9390
S11301603F938F939F93EF93FF938091820190919C
S113017083019C012F5F3F4F3093830120938201C1
S11301802091000130910101821793070CF44DC0B6
S1130190E0918601F0918701EE0FFF1FEE5FFE4FA5
S11301A08081918190938900809388008091860159
S11301B0909187018034910524F010928701109268
S11301C086018091840190918501892B51F480915D
S11301D0860190918701019690938701809386010F
S11301E009C08091860190918701019790938701BE
S11301F0809386018091860190918701CF9739F48D
S113020081E090E090938501809384010AC08091FD
S1130210860190918701892B21F410928501109217
S113022084011092830110928201FF91EF919F91BA
S11302308F913F912F910F900FBE0F901F901895A3
S1130240E0E8F0E0808182688083E1E8F0E080818A
S11302508061808380E094E090938700809386009F
S1130260808181608083EFE6F0E08081816080831B
S113027010928900109288000895E9E6F0E08081E8
S11302808F6380838DB387608DBB87E08CBB0895BB
S1130290559A8BB18C608BB92A9A7894EEDFD0DFB3
S10B02A009DFFFCFF894FFCF42
S11302A87A000000010001000200020002000200BE
S11302B80200030003000300040004000500050015
S11302C8060006000700080009000A000B000C00DD
S11302D80D000F0011001300150017001A001D006F
S11302E82000240028002C00310037003D00440081
S11302F84C0055005E006900750083009200A2005E
S1130308B500CA00E100FA00170137015A01820159
S1130318AE01DF01160253029702E3023803960383
S1050328FF03CD
S9030000FC
